{
  "contractName": "ElegantPuffin",
  "abi": [
    {
      "inputs": [],
      "stateMutability": "nonpayable",
      "type": "constructor"
    },
    {
      "anonymous": false,
      "inputs": [
        {
          "indexed": true,
          "internalType": "address",
          "name": "owner",
          "type": "address"
        },
        {
          "indexed": true,
          "internalType": "address",
          "name": "approved",
          "type": "address"
        },
        {
          "indexed": true,
          "internalType": "uint256",
          "name": "tokenId",
          "type": "uint256"
        }
      ],
      "name": "Approval",
      "type": "event"
    },
    {
      "anonymous": false,
      "inputs": [
        {
          "indexed": true,
          "internalType": "address",
          "name": "owner",
          "type": "address"
        },
        {
          "indexed": true,
          "internalType": "address",
          "name": "operator",
          "type": "address"
        },
        {
          "indexed": false,
          "internalType": "bool",
          "name": "approved",
          "type": "bool"
        }
      ],
      "name": "ApprovalForAll",
      "type": "event"
    },
    {
      "anonymous": false,
      "inputs": [
        {
          "indexed": true,
          "internalType": "address",
          "name": "previousOwner",
          "type": "address"
        },
        {
          "indexed": true,
          "internalType": "address",
          "name": "newOwner",
          "type": "address"
        }
      ],
      "name": "OwnershipTransferred",
      "type": "event"
    },
    {
      "anonymous": false,
      "inputs": [
        {
          "indexed": true,
          "internalType": "address",
          "name": "from",
          "type": "address"
        },
        {
          "indexed": true,
          "internalType": "address",
          "name": "to",
          "type": "address"
        },
        {
          "indexed": true,
          "internalType": "uint256",
          "name": "tokenId",
          "type": "uint256"
        }
      ],
      "name": "Transfer",
      "type": "event"
    },
    {
      "inputs": [],
      "name": "MAX_MINT_PER_TX",
      "outputs": [
        {
          "internalType": "uint256",
          "name": "",
          "type": "uint256"
        }
      ],
      "stateMutability": "view",
      "type": "function"
    },
    {
      "inputs": [],
      "name": "MAX_PRESALE_SUPPLY",
      "outputs": [
        {
          "internalType": "uint256",
          "name": "",
          "type": "uint256"
        }
      ],
      "stateMutability": "view",
      "type": "function"
    },
    {
      "inputs": [],
      "name": "MAX_SUPPLY",
      "outputs": [
        {
          "internalType": "uint256",
          "name": "",
          "type": "uint256"
        }
      ],
      "stateMutability": "view",
      "type": "function"
    },
    {
      "inputs": [],
      "name": "a1",
      "outputs": [
        {
          "internalType": "address",
          "name": "",
          "type": "address"
        }
      ],
      "stateMutability": "view",
      "type": "function"
    },
    {
      "inputs": [],
      "name": "a2",
      "outputs": [
        {
          "internalType": "address",
          "name": "",
          "type": "address"
        }
      ],
      "stateMutability": "view",
      "type": "function"
    },
    {
      "inputs": [],
      "name": "a3",
      "outputs": [
        {
          "internalType": "address",
          "name": "",
          "type": "address"
        }
      ],
      "stateMutability": "view",
      "type": "function"
    },
    {
      "inputs": [
        {
          "internalType": "address",
          "name": "to",
          "type": "address"
        },
        {
          "internalType": "uint256",
          "name": "tokenId",
          "type": "uint256"
        }
      ],
      "name": "approve",
      "outputs": [],
      "stateMutability": "nonpayable",
      "type": "function"
    },
    {
      "inputs": [
        {
          "internalType": "address",
          "name": "owner",
          "type": "address"
        }
      ],
      "name": "balanceOf",
      "outputs": [
        {
          "internalType": "uint256",
          "name": "",
          "type": "uint256"
        }
      ],
      "stateMutability": "view",
      "type": "function"
    },
    {
      "inputs": [],
      "name": "baseTokenURI",
      "outputs": [
        {
          "internalType": "string",
          "name": "",
          "type": "string"
        }
      ],
      "stateMutability": "view",
      "type": "function"
    },
    {
      "inputs": [
        {
          "internalType": "uint256",
          "name": "tokenId",
          "type": "uint256"
        }
      ],
      "name": "getApproved",
      "outputs": [
        {
          "internalType": "address",
          "name": "",
          "type": "address"
        }
      ],
      "stateMutability": "view",
      "type": "function"
    },
    {
      "inputs": [],
      "name": "initial_price",
      "outputs": [
        {
          "internalType": "uint256",
          "name": "",
          "type": "uint256"
        }
      ],
      "stateMutability": "view",
      "type": "function"
    },
    {
      "inputs": [
        {
          "internalType": "address",
          "name": "owner",
          "type": "address"
        },
        {
          "internalType": "address",
          "name": "operator",
          "type": "address"
        }
      ],
      "name": "isApprovedForAll",
      "outputs": [
        {
          "internalType": "bool",
          "name": "",
          "type": "bool"
        }
      ],
      "stateMutability": "view",
      "type": "function"
    },
    {
      "inputs": [],
      "name": "name",
      "outputs": [
        {
          "internalType": "string",
          "name": "",
          "type": "string"
        }
      ],
      "stateMutability": "view",
      "type": "function"
    },
    {
      "inputs": [],
      "name": "owner",
      "outputs": [
        {
          "internalType": "address",
          "name": "",
          "type": "address"
        }
      ],
      "stateMutability": "view",
      "type": "function"
    },
    {
      "inputs": [
        {
          "internalType": "uint256",
          "name": "tokenId",
          "type": "uint256"
        }
      ],
      "name": "ownerOf",
      "outputs": [
        {
          "internalType": "address",
          "name": "",
          "type": "address"
        }
      ],
      "stateMutability": "view",
      "type": "function"
    },
    {
      "inputs": [],
      "name": "presaleActive",
      "outputs": [
        {
          "internalType": "bool",
          "name": "",
          "type": "bool"
        }
      ],
      "stateMutability": "view",
      "type": "function"
    },
    {
      "inputs": [],
      "name": "price",
      "outputs": [
        {
          "internalType": "uint256",
          "name": "",
          "type": "uint256"
        }
      ],
      "stateMutability": "view",
      "type": "function"
    },
    {
      "inputs": [],
      "name": "renounceOwnership",
      "outputs": [],
      "stateMutability": "nonpayable",
      "type": "function"
    },
    {
      "inputs": [],
      "name": "reserved",
      "outputs": [
        {
          "internalType": "uint256",
          "name": "",
          "type": "uint256"
        }
      ],
      "stateMutability": "view",
      "type": "function"
    },
    {
      "inputs": [
        {
          "internalType": "address",
          "name": "from",
          "type": "address"
        },
        {
          "internalType": "address",
          "name": "to",
          "type": "address"
        },
        {
          "internalType": "uint256",
          "name": "tokenId",
          "type": "uint256"
        }
      ],
      "name": "safeTransferFrom",
      "outputs": [],
      "stateMutability": "nonpayable",
      "type": "function"
    },
    {
      "inputs": [
        {
          "internalType": "address",
          "name": "from",
          "type": "address"
        },
        {
          "internalType": "address",
          "name": "to",
          "type": "address"
        },
        {
          "internalType": "uint256",
          "name": "tokenId",
          "type": "uint256"
        },
        {
          "internalType": "bytes",
          "name": "_data",
          "type": "bytes"
        }
      ],
      "name": "safeTransferFrom",
      "outputs": [],
      "stateMutability": "nonpayable",
      "type": "function"
    },
    {
      "inputs": [],
      "name": "saleActive",
      "outputs": [
        {
          "internalType": "bool",
          "name": "",
          "type": "bool"
        }
      ],
      "stateMutability": "view",
      "type": "function"
    },
    {
      "inputs": [
        {
          "internalType": "address",
          "name": "operator",
          "type": "address"
        },
        {
          "internalType": "bool",
          "name": "approved",
          "type": "bool"
        }
      ],
      "name": "setApprovalForAll",
      "outputs": [],
      "stateMutability": "nonpayable",
      "type": "function"
    },
    {
      "inputs": [
        {
          "internalType": "bytes4",
          "name": "interfaceId",
          "type": "bytes4"
        }
      ],
      "name": "supportsInterface",
      "outputs": [
        {
          "internalType": "bool",
          "name": "",
          "type": "bool"
        }
      ],
      "stateMutability": "view",
      "type": "function"
    },
    {
      "inputs": [],
      "name": "symbol",
      "outputs": [
        {
          "internalType": "string",
          "name": "",
          "type": "string"
        }
      ],
      "stateMutability": "view",
      "type": "function"
    },
    {
      "inputs": [
        {
          "internalType": "uint256",
          "name": "index",
          "type": "uint256"
        }
      ],
      "name": "tokenByIndex",
      "outputs": [
        {
          "internalType": "uint256",
          "name": "",
          "type": "uint256"
        }
      ],
      "stateMutability": "view",
      "type": "function"
    },
    {
      "inputs": [
        {
          "internalType": "address",
          "name": "owner",
          "type": "address"
        },
        {
          "internalType": "uint256",
          "name": "index",
          "type": "uint256"
        }
      ],
      "name": "tokenOfOwnerByIndex",
      "outputs": [
        {
          "internalType": "uint256",
          "name": "",
          "type": "uint256"
        }
      ],
      "stateMutability": "view",
      "type": "function"
    },
    {
      "inputs": [
        {
          "internalType": "uint256",
          "name": "tokenId",
          "type": "uint256"
        }
      ],
      "name": "tokenURI",
      "outputs": [
        {
          "internalType": "string",
          "name": "",
          "type": "string"
        }
      ],
      "stateMutability": "view",
      "type": "function"
    },
    {
      "inputs": [],
      "name": "totalSupply",
      "outputs": [
        {
          "internalType": "uint256",
          "name": "",
          "type": "uint256"
        }
      ],
      "stateMutability": "view",
      "type": "function"
    },
    {
      "inputs": [
        {
          "internalType": "address",
          "name": "from",
          "type": "address"
        },
        {
          "internalType": "address",
          "name": "to",
          "type": "address"
        },
        {
          "internalType": "uint256",
          "name": "tokenId",
          "type": "uint256"
        }
      ],
      "name": "transferFrom",
      "outputs": [],
      "stateMutability": "nonpayable",
      "type": "function"
    },
    {
      "inputs": [
        {
          "internalType": "address",
          "name": "newOwner",
          "type": "address"
        }
      ],
      "name": "transferOwnership",
      "outputs": [],
      "stateMutability": "nonpayable",
      "type": "function"
    },
    {
      "inputs": [],
      "name": "whitelistActive",
      "outputs": [
        {
          "internalType": "bool",
          "name": "",
          "type": "bool"
        }
      ],
      "stateMutability": "view",
      "type": "function"
    },
    {
      "inputs": [
        {
          "internalType": "address",
          "name": "",
          "type": "address"
        }
      ],
      "name": "whitelistReserved",
      "outputs": [
        {
          "internalType": "uint256",
          "name": "",
          "type": "uint256"
        }
      ],
      "stateMutability": "view",
      "type": "function"
    },
    {
      "inputs": [
        {
          "internalType": "address",
          "name": "addr",
          "type": "address"
        }
      ],
      "name": "tokensOfOwner",
      "outputs": [
        {
          "internalType": "uint256[]",
          "name": "",
          "type": "uint256[]"
        }
      ],
      "stateMutability": "view",
      "type": "function"
    },
    {
      "inputs": [
        {
          "internalType": "uint256",
          "name": "_amount",
          "type": "uint256"
        }
      ],
      "name": "mintWhitelist",
      "outputs": [],
      "stateMutability": "payable",
      "type": "function"
    },
    {
      "inputs": [
        {
          "internalType": "uint256",
          "name": "_amount",
          "type": "uint256"
        }
      ],
      "name": "mintPresale",
      "outputs": [],
      "stateMutability": "payable",
      "type": "function"
    },
    {
      "inputs": [
        {
          "internalType": "uint256",
          "name": "_amount",
          "type": "uint256"
        }
      ],
      "name": "mintToken",
      "outputs": [],
      "stateMutability": "payable",
      "type": "function"
    },
    {
      "inputs": [
        {
          "internalType": "uint256",
          "name": "_amount",
          "type": "uint256"
        }
      ],
      "name": "mintReserved",
      "outputs": [],
      "stateMutability": "nonpayable",
      "type": "function"
    },
    {
      "inputs": [
        {
          "internalType": "address[]",
          "name": "_a",
          "type": "address[]"
        },
        {
          "internalType": "uint256[]",
          "name": "_amount",
          "type": "uint256[]"
        }
      ],
      "name": "editWhitelistReserved",
      "outputs": [],
      "stateMutability": "nonpayable",
      "type": "function"
    },
    {
      "inputs": [
        {
          "internalType": "bool",
          "name": "val",
          "type": "bool"
        }
      ],
      "name": "setWhitelistActive",
      "outputs": [],
      "stateMutability": "nonpayable",
      "type": "function"
    },
    {
      "inputs": [
        {
          "internalType": "bool",
          "name": "val",
          "type": "bool"
        }
      ],
      "name": "setPresaleActive",
      "outputs": [],
      "stateMutability": "nonpayable",
      "type": "function"
    },
    {
      "inputs": [
        {
          "internalType": "bool",
          "name": "val",
          "type": "bool"
        }
      ],
      "name": "setSaleActive",
      "outputs": [],
      "stateMutability": "nonpayable",
      "type": "function"
    },
    {
      "inputs": [
        {
          "internalType": "string",
          "name": "baseURI",
          "type": "string"
        }
      ],
      "name": "setBaseURI",
      "outputs": [],
      "stateMutability": "nonpayable",
      "type": "function"
    },
    {
      "inputs": [
        {
          "internalType": "uint256",
          "name": "newPrice",
          "type": "uint256"
        }
      ],
      "name": "setPrice",
      "outputs": [],
      "stateMutability": "nonpayable",
      "type": "function"
    },
    {
      "inputs": [
        {
          "internalType": "address[]",
          "name": "_a",
          "type": "address[]"
        }
      ],
      "name": "setAddresses",
      "outputs": [],
      "stateMutability": "nonpayable",
      "type": "function"
    },
    {
      "inputs": [
        {
          "internalType": "uint256",
          "name": "amount",
          "type": "uint256"
        }
      ],
      "name": "withdrawTeam",
      "outputs": [],
      "stateMutability": "payable",
      "type": "function"
    }
  ],
  "bytecode": "0x60806040526000600a60146101000a81548160ff0219169083151502179055506000600a60156101000a81548160ff0219169083151502179055506000600a60166101000a81548160ff0219169083151502179055506096600b5566470de4df820000600c556040518060400160405280601881526020017f68747470733a2f2f6170692e6d697265696e6f2e636f6d2f0000000000000000815250600e9080519060200190620000b29291906200025e565b50348015620000c057600080fd5b506040518060400160405280600e81526020017f456c6567616e742050756666696e0000000000000000000000000000000000008152506040518060400160405280600381526020017f45504600000000000000000000000000000000000000000000000000000000008152508160009080519060200190620001459291906200025e565b5080600190805190602001906200015e9291906200025e565b50505062000181620001756200019060201b60201c565b6200019860201b60201c565b600c54600d8190555062000373565b600033905090565b6000600a60009054906101000a900473ffffffffffffffffffffffffffffffffffffffff16905081600a60006101000a81548173ffffffffffffffffffffffffffffffffffffffff021916908373ffffffffffffffffffffffffffffffffffffffff1602179055508173ffffffffffffffffffffffffffffffffffffffff168173ffffffffffffffffffffffffffffffffffffffff167f8be0079c531659141344cd1fd0a4f28419497f9722a3daafe3b4186f6b6457e060405160405180910390a35050565b8280546200026c906200033d565b90600052602060002090601f016020900481019282620002905760008555620002dc565b82601f10620002ab57805160ff1916838001178555620002dc565b82800160010185558215620002dc579182015b82811115620002db578251825591602001919060010190620002be565b5b509050620002eb9190620002ef565b5090565b5b808211156200030a576000816000905550600101620002f0565b5090565b7f4e487b7100000000000000000000000000000000000000000000000000000000600052602260045260246000fd5b600060028204905060018216806200035657607f821691505b602082108114156200036d576200036c6200030e565b5b50919050565b61536c80620003836000396000f3fe60806040526004361061027d5760003560e01c80638462151c1161014f578063b88d4fde116100c1578063e985e9c51161007a578063e985e9c514610992578063f14c0bcc146109cf578063f2fde38b146109f8578063f759867a14610a21578063fd2b049214610a3d578063fe60d12c14610a595761027d565b8063b88d4fde14610893578063b9571721146108bc578063c3b754dc146108e5578063c634d0321461090e578063c87b56dd1461092a578063d547cfb7146109675761027d565b806395d89b411161011357806395d89b4114610795578063969e9d0c146107c05780639a5d140b146107eb578063a035b1fe14610814578063a22cb4651461083f578063ab3f5a1a146108685761027d565b80638462151c146106ae5780638da5cb5b146106eb5780638ecad7211461071657806391b7f5ed146107415780639426eef81461076a5761027d565b806342842e0e116101f357806368428a1b116101ac57806368428a1b1461059e5780636b8dc355146105c957806370a08231146105f4578063715018a61461063157806372e3a3eb14610648578063841718a6146106855761027d565b806342842e0e1461048b5780634618163e146104b45780634f6ccce7146104d057806353135ca01461050d57806355f804b3146105385780636352211e146105615761027d565b8063119552a111610245578063119552a11461037b57806318160ddd146103a657806323b872dd146103d15780632f745c59146103fa57806332cb6b0c146104375780633f8121a2146104625761027d565b806301ffc9a71461028257806302ce5813146102bf57806306fdde03146102ea578063081812fc14610315578063095ea7b314610352575b600080fd5b34801561028e57600080fd5b506102a960048036038101906102a4919061379d565b610a84565b6040516102b691906137e5565b60405180910390f35b3480156102cb57600080fd5b506102d4610afe565b6040516102e191906137e5565b60405180910390f35b3480156102f657600080fd5b506102ff610b11565b60405161030c9190613899565b60405180910390f35b34801561032157600080fd5b5061033c600480360381019061033791906138f1565b610ba3565b604051610349919061395f565b60405180910390f35b34801561035e57600080fd5b50610379600480360381019061037491906139a6565b610c28565b005b34801561038757600080fd5b50610390610d40565b60405161039d919061395f565b60405180910390f35b3480156103b257600080fd5b506103bb610d66565b6040516103c891906139f5565b60405180910390f35b3480156103dd57600080fd5b506103f860048036038101906103f39190613a10565b610d73565b005b34801561040657600080fd5b50610421600480360381019061041c91906139a6565b610dd3565b60405161042e91906139f5565b60405180910390f35b34801561044357600080fd5b5061044c610e78565b60405161045991906139f5565b60405180910390f35b34801561046e57600080fd5b5061048960048036038101906104849190613a8f565b610e7d565b005b34801561049757600080fd5b506104b260048036038101906104ad9190613a10565b610f16565b005b6104ce60048036038101906104c991906138f1565b610f36565b005b3480156104dc57600080fd5b506104f760048036038101906104f291906138f1565b611181565b60405161050491906139f5565b60405180910390f35b34801561051957600080fd5b506105226111f2565b60405161052f91906137e5565b60405180910390f35b34801561054457600080fd5b5061055f600480360381019061055a9190613bf1565b611205565b005b34801561056d57600080fd5b50610588600480360381019061058391906138f1565b61129b565b604051610595919061395f565b60405180910390f35b3480156105aa57600080fd5b506105b361134d565b6040516105c091906137e5565b60405180910390f35b3480156105d557600080fd5b506105de611360565b6040516105eb91906139f5565b60405180910390f35b34801561060057600080fd5b5061061b60048036038101906106169190613c3a565b611366565b60405161062891906139f5565b60405180910390f35b34801561063d57600080fd5b5061064661141e565b005b34801561065457600080fd5b5061066f600480360381019061066a9190613c3a565b6114a6565b60405161067c91906139f5565b60405180910390f35b34801561069157600080fd5b506106ac60048036038101906106a79190613a8f565b6114be565b005b3480156106ba57600080fd5b506106d560048036038101906106d09190613c3a565b611557565b6040516106e29190613d25565b60405180910390f35b3480156106f757600080fd5b50610700611605565b60405161070d919061395f565b60405180910390f35b34801561072257600080fd5b5061072b61162f565b60405161073891906139f5565b60405180910390f35b34801561074d57600080fd5b50610768600480360381019061076391906138f1565b611634565b005b34801561077657600080fd5b5061077f6116ba565b60405161078c919061395f565b60405180910390f35b3480156107a157600080fd5b506107aa6116e0565b6040516107b79190613899565b60405180910390f35b3480156107cc57600080fd5b506107d5611772565b6040516107e2919061395f565b60405180910390f35b3480156107f757600080fd5b50610812600480360381019061080d91906138f1565b611798565b005b34801561082057600080fd5b506108296118b6565b60405161083691906139f5565b60405180910390f35b34801561084b57600080fd5b5061086660048036038101906108619190613d47565b6118bc565b005b34801561087457600080fd5b5061087d6118d2565b60405161088a91906139f5565b60405180910390f35b34801561089f57600080fd5b506108ba60048036038101906108b59190613e28565b6118d8565b005b3480156108c857600080fd5b506108e360048036038101906108de9190613f73565b61193a565b005b3480156108f157600080fd5b5061090c60048036038101906109079190613a8f565b611acd565b005b610928600480360381019061092391906138f1565b611b66565b005b34801561093657600080fd5b50610951600480360381019061094c91906138f1565b611ce7565b60405161095e9190613899565b60405180910390f35b34801561097357600080fd5b5061097c611d8e565b6040516109899190613899565b60405180910390f35b34801561099e57600080fd5b506109b960048036038101906109b49190613fbc565b611e1c565b6040516109c691906137e5565b60405180910390f35b3480156109db57600080fd5b506109f660048036038101906109f191906140bf565b611eb0565b005b348015610a0457600080fd5b50610a1f6004803603810190610a1a9190613c3a565b611fc8565b005b610a3b6004803603810190610a3691906138f1565b6120c0565b005b610a576004803603810190610a5291906138f1565b612242565b005b348015610a6557600080fd5b50610a6e612417565b604051610a7b91906139f5565b60405180910390f35b60007f780e9d63000000000000000000000000000000000000000000000000000000007bffffffffffffffffffffffffffffffffffffffffffffffffffffffff1916827bffffffffffffffffffffffffffffffffffffffffffffffffffffffff19161480610af75750610af68261241d565b5b9050919050565b600a60149054906101000a900460ff1681565b606060008054610b2090614166565b80601f0160208091040260200160405190810160405280929190818152602001828054610b4c90614166565b8015610b995780601f10610b6e57610100808354040283529160200191610b99565b820191906000526020600020905b815481529060010190602001808311610b7c57829003601f168201915b5050505050905090565b6000610bae826124ff565b610bed576040517f08c379a0000000000000000000000000000000000000000000000000000000008152600401610be49061420a565b60405180910390fd5b6004600083815260200190815260200160002060009054906101000a900473ffffffffffffffffffffffffffffffffffffffff169050919050565b6000610c338261129b565b90508073ffffffffffffffffffffffffffffffffffffffff168373ffffffffffffffffffffffffffffffffffffffff161415610ca4576040517f08c379a0000000000000000000000000000000000000000000000000000000008152600401610c9b9061429c565b60405180910390fd5b8073ffffffffffffffffffffffffffffffffffffffff16610cc361256b565b73ffffffffffffffffffffffffffffffffffffffff161480610cf25750610cf181610cec61256b565b611e1c565b5b610d31576040517f08c379a0000000000000000000000000000000000000000000000000000000008152600401610d289061432e565b60405180910390fd5b610d3b8383612573565b505050565b600f60009054906101000a900473ffffffffffffffffffffffffffffffffffffffff1681565b6000600880549050905090565b610d84610d7e61256b565b8261262c565b610dc3576040517f08c379a0000000000000000000000000000000000000000000000000000000008152600401610dba906143c0565b60405180910390fd5b610dce83838361270a565b505050565b6000610dde83611366565b8210610e1f576040517f08c379a0000000000000000000000000000000000000000000000000000000008152600401610e1690614452565b60405180910390fd5b600660008473ffffffffffffffffffffffffffffffffffffffff1673ffffffffffffffffffffffffffffffffffffffff168152602001908152602001600020600083815260200190815260200160002054905092915050565b601481565b610e8561256b565b73ffffffffffffffffffffffffffffffffffffffff16610ea3611605565b73ffffffffffffffffffffffffffffffffffffffff1614610ef9576040517f08c379a0000000000000000000000000000000000000000000000000000000008152600401610ef0906144be565b60405180910390fd5b80600a60156101000a81548160ff02191690831515021790555050565b610f31838383604051806020016040528060008152506118d8565b505050565b6000610f40610d66565b90506000601260003373ffffffffffffffffffffffffffffffffffffffff1673ffffffffffffffffffffffffffffffffffffffff168152602001908152602001600020549050600a60149054906101000a900460ff16610fd5576040517f08c379a0000000000000000000000000000000000000000000000000000000008152600401610fcc9061452a565b60405180910390fd5b60008111611018576040517f08c379a000000000000000000000000000000000000000000000000000000000815260040161100f906145bc565b60405180910390fd5b8083111561105b576040517f08c379a000000000000000000000000000000000000000000000000000000000815260040161105290614628565b60405180910390fd5b601483836110699190614677565b11156110aa576040517f08c379a00000000000000000000000000000000000000000000000000000000081526004016110a190614719565b60405180910390fd5b82600d546110b89190614739565b34146110f9576040517f08c379a00000000000000000000000000000000000000000000000000000000081526004016110f0906147df565b60405180910390fd5b828161110591906147ff565b601260003373ffffffffffffffffffffffffffffffffffffffff1673ffffffffffffffffffffffffffffffffffffffff1681526020019081526020016000208190555060005b8381101561117b576111683382856111639190614677565b612971565b808061117390614833565b91505061114b565b50505050565b600061118b610d66565b82106111cc576040517f08c379a00000000000000000000000000000000000000000000000000000000081526004016111c3906148ee565b60405180910390fd5b600882815481106111e0576111df61490e565b5b90600052602060002001549050919050565b600a60159054906101000a900460ff1681565b61120d61256b565b73ffffffffffffffffffffffffffffffffffffffff1661122b611605565b73ffffffffffffffffffffffffffffffffffffffff1614611281576040517f08c379a0000000000000000000000000000000000000000000000000000000008152600401611278906144be565b60405180910390fd5b80600e908051906020019061129792919061368e565b5050565b6000806002600084815260200190815260200160002060009054906101000a900473ffffffffffffffffffffffffffffffffffffffff169050600073ffffffffffffffffffffffffffffffffffffffff168173ffffffffffffffffffffffffffffffffffffffff161415611344576040517f08c379a000000000000000000000000000000000000000000000000000000000815260040161133b906149af565b60405180910390fd5b80915050919050565b600a60169054906101000a900460ff1681565b6101f481565b60008073ffffffffffffffffffffffffffffffffffffffff168273ffffffffffffffffffffffffffffffffffffffff1614156113d7576040517f08c379a00000000000000000000000000000000000000000000000000000000081526004016113ce90614a41565b60405180910390fd5b600360008373ffffffffffffffffffffffffffffffffffffffff1673ffffffffffffffffffffffffffffffffffffffff168152602001908152602001600020549050919050565b61142661256b565b73ffffffffffffffffffffffffffffffffffffffff16611444611605565b73ffffffffffffffffffffffffffffffffffffffff161461149a576040517f08c379a0000000000000000000000000000000000000000000000000000000008152600401611491906144be565b60405180910390fd5b6114a4600061298f565b565b60126020528060005260406000206000915090505481565b6114c661256b565b73ffffffffffffffffffffffffffffffffffffffff166114e4611605565b73ffffffffffffffffffffffffffffffffffffffff161461153a576040517f08c379a0000000000000000000000000000000000000000000000000000000008152600401611531906144be565b60405180910390fd5b80600a60166101000a81548160ff02191690831515021790555050565b6060600061156483611366565b905060008167ffffffffffffffff81111561158257611581613ac6565b5b6040519080825280602002602001820160405280156115b05781602001602082028036833780820191505090505b50905060005b828110156115fa576115c88582610dd3565b8282815181106115db576115da61490e565b5b60200260200101818152505080806115f290614833565b9150506115b6565b508092505050919050565b6000600a60009054906101000a900473ffffffffffffffffffffffffffffffffffffffff16905090565b601481565b61163c61256b565b73ffffffffffffffffffffffffffffffffffffffff1661165a611605565b73ffffffffffffffffffffffffffffffffffffffff16146116b0576040517f08c379a00000000000000000000000000000000000000000000000000000000081526004016116a7906144be565b60405180910390fd5b80600d8190555050565b601160009054906101000a900473ffffffffffffffffffffffffffffffffffffffff1681565b6060600180546116ef90614166565b80601f016020809104026020016040519081016040528092919081815260200182805461171b90614166565b80156117685780601f1061173d57610100808354040283529160200191611768565b820191906000526020600020905b81548152906001019060200180831161174b57829003601f168201915b5050505050905090565b601060009054906101000a900473ffffffffffffffffffffffffffffffffffffffff1681565b6117a061256b565b73ffffffffffffffffffffffffffffffffffffffff166117be611605565b73ffffffffffffffffffffffffffffffffffffffff1614611814576040517f08c379a000000000000000000000000000000000000000000000000000000000815260040161180b906144be565b60405180910390fd5b600b54811115611859576040517f08c379a000000000000000000000000000000000000000000000000000000000815260040161185090614ad3565b60405180910390fd5b80600b600082825461186b91906147ff565b92505081905550600061187c610d66565b905060005b828110156118b15761189e3382846118999190614677565b612971565b80806118a990614833565b915050611881565b505050565b600d5481565b6118ce6118c761256b565b8383612a55565b5050565b600c5481565b6118e96118e361256b565b8361262c565b611928576040517f08c379a000000000000000000000000000000000000000000000000000000000815260040161191f906143c0565b60405180910390fd5b61193484848484612bc2565b50505050565b61194261256b565b73ffffffffffffffffffffffffffffffffffffffff16611960611605565b73ffffffffffffffffffffffffffffffffffffffff16146119b6576040517f08c379a00000000000000000000000000000000000000000000000000000000081526004016119ad906144be565b60405180910390fd5b806000815181106119ca576119c961490e565b5b6020026020010151600f60006101000a81548173ffffffffffffffffffffffffffffffffffffffff021916908373ffffffffffffffffffffffffffffffffffffffff16021790555080600181518110611a2657611a2561490e565b5b6020026020010151601060006101000a81548173ffffffffffffffffffffffffffffffffffffffff021916908373ffffffffffffffffffffffffffffffffffffffff16021790555080600281518110611a8257611a8161490e565b5b6020026020010151601160006101000a81548173ffffffffffffffffffffffffffffffffffffffff021916908373ffffffffffffffffffffffffffffffffffffffff16021790555050565b611ad561256b565b73ffffffffffffffffffffffffffffffffffffffff16611af3611605565b73ffffffffffffffffffffffffffffffffffffffff1614611b49576040517f08c379a0000000000000000000000000000000000000000000000000000000008152600401611b40906144be565b60405180910390fd5b80600a60146101000a81548160ff02191690831515021790555050565b6000611b70610d66565b9050600a60169054906101000a900460ff16611bc1576040517f08c379a0000000000000000000000000000000000000000000000000000000008152600401611bb890614b3f565b60405180910390fd5b600082118015611bd2575060148211155b611c11576040517f08c379a0000000000000000000000000000000000000000000000000000000008152600401611c0890614bd1565b60405180910390fd5b60148282611c1f9190614677565b1115611c60576040517f08c379a0000000000000000000000000000000000000000000000000000000008152600401611c5790614719565b60405180910390fd5b81600d54611c6e9190614739565b3414611caf576040517f08c379a0000000000000000000000000000000000000000000000000000000008152600401611ca6906147df565b60405180910390fd5b60005b82811015611ce257611ccf338284611cca9190614677565b612971565b8080611cda90614833565b915050611cb2565b505050565b6060611cf2826124ff565b611d31576040517f08c379a0000000000000000000000000000000000000000000000000000000008152600401611d2890614c63565b60405180910390fd5b6000611d3b612c1e565b90506000815111611d5b5760405180602001604052806000815250611d86565b80611d6584612cb0565b604051602001611d76929190614cbf565b6040516020818303038152906040525b915050919050565b600e8054611d9b90614166565b80601f0160208091040260200160405190810160405280929190818152602001828054611dc790614166565b8015611e145780601f10611de957610100808354040283529160200191611e14565b820191906000526020600020905b815481529060010190602001808311611df757829003601f168201915b505050505081565b6000600560008473ffffffffffffffffffffffffffffffffffffffff1673ffffffffffffffffffffffffffffffffffffffff16815260200190815260200160002060008373ffffffffffffffffffffffffffffffffffffffff1673ffffffffffffffffffffffffffffffffffffffff16815260200190815260200160002060009054906101000a900460ff16905092915050565b611eb861256b565b73ffffffffffffffffffffffffffffffffffffffff16611ed6611605565b73ffffffffffffffffffffffffffffffffffffffff1614611f2c576040517f08c379a0000000000000000000000000000000000000000000000000000000008152600401611f23906144be565b60405180910390fd5b60005b8251811015611fc357818181518110611f4b57611f4a61490e565b5b602002602001015160126000858481518110611f6a57611f6961490e565b5b602002602001015173ffffffffffffffffffffffffffffffffffffffff1673ffffffffffffffffffffffffffffffffffffffff168152602001908152602001600020819055508080611fbb90614833565b915050611f2f565b505050565b611fd061256b565b73ffffffffffffffffffffffffffffffffffffffff16611fee611605565b73ffffffffffffffffffffffffffffffffffffffff1614612044576040517f08c379a000000000000000000000000000000000000000000000000000000000815260040161203b906144be565b60405180910390fd5b600073ffffffffffffffffffffffffffffffffffffffff168173ffffffffffffffffffffffffffffffffffffffff1614156120b4576040517f08c379a00000000000000000000000000000000000000000000000000000000081526004016120ab90614d55565b60405180910390fd5b6120bd8161298f565b50565b60006120ca610d66565b9050600a60159054906101000a900460ff1661211b576040517f08c379a000000000000000000000000000000000000000000000000000000000815260040161211290614b3f565b60405180910390fd5b60008211801561212c575060148211155b61216b576040517f08c379a000000000000000000000000000000000000000000000000000000000815260040161216290614de7565b60405180910390fd5b6101f4828261217a9190614677565b11156121bb576040517f08c379a00000000000000000000000000000000000000000000000000000000081526004016121b290614719565b60405180910390fd5b81600d546121c99190614739565b341461220a576040517f08c379a0000000000000000000000000000000000000000000000000000000008152600401612201906147df565b60405180910390fd5b60005b8281101561223d5761222a3382846122259190614677565b612971565b808061223590614833565b91505061220d565b505050565b61224a61256b565b73ffffffffffffffffffffffffffffffffffffffff16612268611605565b73ffffffffffffffffffffffffffffffffffffffff16146122be576040517f08c379a00000000000000000000000000000000000000000000000000000000081526004016122b5906144be565b60405180910390fd5b60006064826122cd9190614e36565b9050600f60009054906101000a900473ffffffffffffffffffffffffffffffffffffffff1673ffffffffffffffffffffffffffffffffffffffff166108fc6028836123189190614739565b9081150290604051600060405180830381858888f1935050505061233b57600080fd5b601060009054906101000a900473ffffffffffffffffffffffffffffffffffffffff1673ffffffffffffffffffffffffffffffffffffffff166108fc601e836123849190614739565b9081150290604051600060405180830381858888f193505050506123a757600080fd5b601160009054906101000a900473ffffffffffffffffffffffffffffffffffffffff1673ffffffffffffffffffffffffffffffffffffffff166108fc601e836123f09190614739565b9081150290604051600060405180830381858888f1935050505061241357600080fd5b5050565b600b5481565b60007f80ac58cd000000000000000000000000000000000000000000000000000000007bffffffffffffffffffffffffffffffffffffffffffffffffffffffff1916827bffffffffffffffffffffffffffffffffffffffffffffffffffffffff191614806124e857507f5b5e139f000000000000000000000000000000000000000000000000000000007bffffffffffffffffffffffffffffffffffffffffffffffffffffffff1916827bffffffffffffffffffffffffffffffffffffffffffffffffffffffff1916145b806124f857506124f782612e11565b5b9050919050565b60008073ffffffffffffffffffffffffffffffffffffffff166002600084815260200190815260200160002060009054906101000a900473ffffffffffffffffffffffffffffffffffffffff1673ffffffffffffffffffffffffffffffffffffffff1614159050919050565b600033905090565b816004600083815260200190815260200160002060006101000a81548173ffffffffffffffffffffffffffffffffffffffff021916908373ffffffffffffffffffffffffffffffffffffffff160217905550808273ffffffffffffffffffffffffffffffffffffffff166125e68361129b565b73ffffffffffffffffffffffffffffffffffffffff167f8c5be1e5ebec7d5bd14f71427d1e84f3dd0314c0f7b2291e5b200ac8c7c3b92560405160405180910390a45050565b6000612637826124ff565b612676576040517f08c379a000000000000000000000000000000000000000000000000000000000815260040161266d90614ed9565b60405180910390fd5b60006126818361129b565b90508073ffffffffffffffffffffffffffffffffffffffff168473ffffffffffffffffffffffffffffffffffffffff1614806126c357506126c28185611e1c565b5b8061270157508373ffffffffffffffffffffffffffffffffffffffff166126e984610ba3565b73ffffffffffffffffffffffffffffffffffffffff16145b91505092915050565b8273ffffffffffffffffffffffffffffffffffffffff1661272a8261129b565b73ffffffffffffffffffffffffffffffffffffffff1614612780576040517f08c379a000000000000000000000000000000000000000000000000000000000815260040161277790614f6b565b60405180910390fd5b600073ffffffffffffffffffffffffffffffffffffffff168273ffffffffffffffffffffffffffffffffffffffff1614156127f0576040517f08c379a00000000000000000000000000000000000000000000000000000000081526004016127e790614ffd565b60405180910390fd5b6127fb838383612e7b565b612806600082612573565b6001600360008573ffffffffffffffffffffffffffffffffffffffff1673ffffffffffffffffffffffffffffffffffffffff168152602001908152602001600020600082825461285691906147ff565b925050819055506001600360008473ffffffffffffffffffffffffffffffffffffffff1673ffffffffffffffffffffffffffffffffffffffff16815260200190815260200160002060008282546128ad9190614677565b92505081905550816002600083815260200190815260200160002060006101000a81548173ffffffffffffffffffffffffffffffffffffffff021916908373ffffffffffffffffffffffffffffffffffffffff160217905550808273ffffffffffffffffffffffffffffffffffffffff168473ffffffffffffffffffffffffffffffffffffffff167fddf252ad1be2c89b69c2b068fc378daa952ba7f163c4a11628f55a4df523b3ef60405160405180910390a461296c838383612f8f565b505050565b61298b828260405180602001604052806000815250612f94565b5050565b6000600a60009054906101000a900473ffffffffffffffffffffffffffffffffffffffff16905081600a60006101000a81548173ffffffffffffffffffffffffffffffffffffffff021916908373ffffffffffffffffffffffffffffffffffffffff1602179055508173ffffffffffffffffffffffffffffffffffffffff168173ffffffffffffffffffffffffffffffffffffffff167f8be0079c531659141344cd1fd0a4f28419497f9722a3daafe3b4186f6b6457e060405160405180910390a35050565b8173ffffffffffffffffffffffffffffffffffffffff168373ffffffffffffffffffffffffffffffffffffffff161415612ac4576040517f08c379a0000000000000000000000000000000000000000000000000000000008152600401612abb90615069565b60405180910390fd5b80600560008573ffffffffffffffffffffffffffffffffffffffff1673ffffffffffffffffffffffffffffffffffffffff16815260200190815260200160002060008473ffffffffffffffffffffffffffffffffffffffff1673ffffffffffffffffffffffffffffffffffffffff16815260200190815260200160002060006101000a81548160ff0219169083151502179055508173ffffffffffffffffffffffffffffffffffffffff168373ffffffffffffffffffffffffffffffffffffffff167f17307eab39ab6107e8899845ad3d59bd9653f200f220920489ca2b5937696c3183604051612bb591906137e5565b60405180910390a3505050565b612bcd84848461270a565b612bd984848484612fef565b612c18576040517f08c379a0000000000000000000000000000000000000000000000000000000008152600401612c0f906150fb565b60405180910390fd5b50505050565b6060600e8054612c2d90614166565b80601f0160208091040260200160405190810160405280929190818152602001828054612c5990614166565b8015612ca65780601f10612c7b57610100808354040283529160200191612ca6565b820191906000526020600020905b815481529060010190602001808311612c8957829003601f168201915b5050505050905090565b60606000821415612cf8576040518060400160405280600181526020017f30000000000000000000000000000000000000000000000000000000000000008152509050612e0c565b600082905060005b60008214612d2a578080612d1390614833565b915050600a82612d239190614e36565b9150612d00565b60008167ffffffffffffffff811115612d4657612d45613ac6565b5b6040519080825280601f01601f191660200182016040528015612d785781602001600182028036833780820191505090505b5090505b60008514612e0557600182612d9191906147ff565b9150600a85612da0919061511b565b6030612dac9190614677565b60f81b818381518110612dc257612dc161490e565b5b60200101907effffffffffffffffffffffffffffffffffffffffffffffffffffffffffffff1916908160001a905350600a85612dfe9190614e36565b9450612d7c565b8093505050505b919050565b60007f01ffc9a7000000000000000000000000000000000000000000000000000000007bffffffffffffffffffffffffffffffffffffffffffffffffffffffff1916827bffffffffffffffffffffffffffffffffffffffffffffffffffffffff1916149050919050565b612e86838383613186565b600073ffffffffffffffffffffffffffffffffffffffff168373ffffffffffffffffffffffffffffffffffffffff161415612ec957612ec48161318b565b612f08565b8173ffffffffffffffffffffffffffffffffffffffff168373ffffffffffffffffffffffffffffffffffffffff1614612f0757612f0683826131d4565b5b5b600073ffffffffffffffffffffffffffffffffffffffff168273ffffffffffffffffffffffffffffffffffffffff161415612f4b57612f4681613341565b612f8a565b8273ffffffffffffffffffffffffffffffffffffffff168273ffffffffffffffffffffffffffffffffffffffff1614612f8957612f888282613412565b5b5b505050565b505050565b612f9e8383613491565b612fab6000848484612fef565b612fea576040517f08c379a0000000000000000000000000000000000000000000000000000000008152600401612fe1906150fb565b60405180910390fd5b505050565b60006130108473ffffffffffffffffffffffffffffffffffffffff1661366b565b15613179578373ffffffffffffffffffffffffffffffffffffffff1663150b7a0261303961256b565b8786866040518563ffffffff1660e01b815260040161305b94939291906151a1565b602060405180830381600087803b15801561307557600080fd5b505af19250505080156130a657506040513d601f19601f820116820180604052508101906130a39190615202565b60015b613129573d80600081146130d6576040519150601f19603f3d011682016040523d82523d6000602084013e6130db565b606091505b50600081511415613121576040517f08c379a0000000000000000000000000000000000000000000000000000000008152600401613118906150fb565b60405180910390fd5b805181602001fd5b63150b7a0260e01b7bffffffffffffffffffffffffffffffffffffffffffffffffffffffff1916817bffffffffffffffffffffffffffffffffffffffffffffffffffffffff19161491505061317e565b600190505b949350505050565b505050565b6008805490506009600083815260200190815260200160002081905550600881908060018154018082558091505060019003906000526020600020016000909190919091505550565b600060016131e184611366565b6131eb91906147ff565b90506000600760008481526020019081526020016000205490508181146132d0576000600660008673ffffffffffffffffffffffffffffffffffffffff1673ffffffffffffffffffffffffffffffffffffffff168152602001908152602001600020600084815260200190815260200160002054905080600660008773ffffffffffffffffffffffffffffffffffffffff1673ffffffffffffffffffffffffffffffffffffffff168152602001908152602001600020600084815260200190815260200160002081905550816007600083815260200190815260200160002081905550505b6007600084815260200190815260200160002060009055600660008573ffffffffffffffffffffffffffffffffffffffff1673ffffffffffffffffffffffffffffffffffffffff16815260200190815260200160002060008381526020019081526020016000206000905550505050565b6000600160088054905061335591906147ff565b90506000600960008481526020019081526020016000205490506000600883815481106133855761338461490e565b5b9060005260206000200154905080600883815481106133a7576133a661490e565b5b9060005260206000200181905550816009600083815260200190815260200160002081905550600960008581526020019081526020016000206000905560088054806133f6576133f561522f565b5b6001900381819060005260206000200160009055905550505050565b600061341d83611366565b905081600660008573ffffffffffffffffffffffffffffffffffffffff1673ffffffffffffffffffffffffffffffffffffffff168152602001908152602001600020600083815260200190815260200160002081905550806007600084815260200190815260200160002081905550505050565b600073ffffffffffffffffffffffffffffffffffffffff168273ffffffffffffffffffffffffffffffffffffffff161415613501576040517f08c379a00000000000000000000000000000000000000000000000000000000081526004016134f8906152aa565b60405180910390fd5b61350a816124ff565b1561354a576040517f08c379a000000000000000000000000000000000000000000000000000000000815260040161354190615316565b60405180910390fd5b61355660008383612e7b565b6001600360008473ffffffffffffffffffffffffffffffffffffffff1673ffffffffffffffffffffffffffffffffffffffff16815260200190815260200160002060008282546135a69190614677565b92505081905550816002600083815260200190815260200160002060006101000a81548173ffffffffffffffffffffffffffffffffffffffff021916908373ffffffffffffffffffffffffffffffffffffffff160217905550808273ffffffffffffffffffffffffffffffffffffffff16600073ffffffffffffffffffffffffffffffffffffffff167fddf252ad1be2c89b69c2b068fc378daa952ba7f163c4a11628f55a4df523b3ef60405160405180910390a461366760008383612f8f565b5050565b6000808273ffffffffffffffffffffffffffffffffffffffff163b119050919050565b82805461369a90614166565b90600052602060002090601f0160209004810192826136bc5760008555613703565b82601f106136d557805160ff1916838001178555613703565b82800160010185558215613703579182015b828111156137025782518255916020019190600101906136e7565b5b5090506137109190613714565b5090565b5b8082111561372d576000816000905550600101613715565b5090565b6000604051905090565b600080fd5b600080fd5b60007fffffffff0000000000000000000000000000000000000000000000000000000082169050919050565b61377a81613745565b811461378557600080fd5b50565b60008135905061379781613771565b92915050565b6000602082840312156137b3576137b261373b565b5b60006137c184828501613788565b91505092915050565b60008115159050919050565b6137df816137ca565b82525050565b60006020820190506137fa60008301846137d6565b92915050565b600081519050919050565b600082825260208201905092915050565b60005b8381101561383a57808201518184015260208101905061381f565b83811115613849576000848401525b50505050565b6000601f19601f8301169050919050565b600061386b82613800565b613875818561380b565b935061388581856020860161381c565b61388e8161384f565b840191505092915050565b600060208201905081810360008301526138b38184613860565b905092915050565b6000819050919050565b6138ce816138bb565b81146138d957600080fd5b50565b6000813590506138eb816138c5565b92915050565b6000602082840312156139075761390661373b565b5b6000613915848285016138dc565b91505092915050565b600073ffffffffffffffffffffffffffffffffffffffff82169050919050565b60006139498261391e565b9050919050565b6139598161393e565b82525050565b60006020820190506139746000830184613950565b92915050565b6139838161393e565b811461398e57600080fd5b50565b6000813590506139a08161397a565b92915050565b600080604083850312156139bd576139bc61373b565b5b60006139cb85828601613991565b92505060206139dc858286016138dc565b9150509250929050565b6139ef816138bb565b82525050565b6000602082019050613a0a60008301846139e6565b92915050565b600080600060608486031215613a2957613a2861373b565b5b6000613a3786828701613991565b9350506020613a4886828701613991565b9250506040613a59868287016138dc565b9150509250925092565b613a6c816137ca565b8114613a7757600080fd5b50565b600081359050613a8981613a63565b92915050565b600060208284031215613aa557613aa461373b565b5b6000613ab384828501613a7a565b91505092915050565b600080fd5b600080fd5b7f4e487b7100000000000000000000000000000000000000000000000000000000600052604160045260246000fd5b613afe8261384f565b810181811067ffffffffffffffff82111715613b1d57613b1c613ac6565b5b80604052505050565b6000613b30613731565b9050613b3c8282613af5565b919050565b600067ffffffffffffffff821115613b5c57613b5b613ac6565b5b613b658261384f565b9050602081019050919050565b82818337600083830152505050565b6000613b94613b8f84613b41565b613b26565b905082815260208101848484011115613bb057613baf613ac1565b5b613bbb848285613b72565b509392505050565b600082601f830112613bd857613bd7613abc565b5b8135613be8848260208601613b81565b91505092915050565b600060208284031215613c0757613c0661373b565b5b600082013567ffffffffffffffff811115613c2557613c24613740565b5b613c3184828501613bc3565b91505092915050565b600060208284031215613c5057613c4f61373b565b5b6000613c5e84828501613991565b91505092915050565b600081519050919050565b600082825260208201905092915050565b6000819050602082019050919050565b613c9c816138bb565b82525050565b6000613cae8383613c93565b60208301905092915050565b6000602082019050919050565b6000613cd282613c67565b613cdc8185613c72565b9350613ce783613c83565b8060005b83811015613d18578151613cff8882613ca2565b9750613d0a83613cba565b925050600181019050613ceb565b5085935050505092915050565b60006020820190508181036000830152613d3f8184613cc7565b905092915050565b60008060408385031215613d5e57613d5d61373b565b5b6000613d6c85828601613991565b9250506020613d7d85828601613a7a565b9150509250929050565b600067ffffffffffffffff821115613da257613da1613ac6565b5b613dab8261384f565b9050602081019050919050565b6000613dcb613dc684613d87565b613b26565b905082815260208101848484011115613de757613de6613ac1565b5b613df2848285613b72565b509392505050565b600082601f830112613e0f57613e0e613abc565b5b8135613e1f848260208601613db8565b91505092915050565b60008060008060808587031215613e4257613e4161373b565b5b6000613e5087828801613991565b9450506020613e6187828801613991565b9350506040613e72878288016138dc565b925050606085013567ffffffffffffffff811115613e9357613e92613740565b5b613e9f87828801613dfa565b91505092959194509250565b600067ffffffffffffffff821115613ec657613ec5613ac6565b5b602082029050602081019050919050565b600080fd5b6000613eef613eea84613eab565b613b26565b90508083825260208201905060208402830185811115613f1257613f11613ed7565b5b835b81811015613f3b5780613f278882613991565b845260208401935050602081019050613f14565b5050509392505050565b600082601f830112613f5a57613f59613abc565b5b8135613f6a848260208601613edc565b91505092915050565b600060208284031215613f8957613f8861373b565b5b600082013567ffffffffffffffff811115613fa757613fa6613740565b5b613fb384828501613f45565b91505092915050565b60008060408385031215613fd357613fd261373b565b5b6000613fe185828601613991565b9250506020613ff285828601613991565b9150509250929050565b600067ffffffffffffffff82111561401757614016613ac6565b5b602082029050602081019050919050565b600061403b61403684613ffc565b613b26565b9050808382526020820190506020840283018581111561405e5761405d613ed7565b5b835b81811015614087578061407388826138dc565b845260208401935050602081019050614060565b5050509392505050565b600082601f8301126140a6576140a5613abc565b5b81356140b6848260208601614028565b91505092915050565b600080604083850312156140d6576140d561373b565b5b600083013567ffffffffffffffff8111156140f4576140f3613740565b5b61410085828601613f45565b925050602083013567ffffffffffffffff81111561412157614120613740565b5b61412d85828601614091565b9150509250929050565b7f4e487b7100000000000000000000000000000000000000000000000000000000600052602260045260246000fd5b6000600282049050600182168061417e57607f821691505b6020821081141561419257614191614137565b5b50919050565b7f4552433732313a20617070726f76656420717565727920666f72206e6f6e657860008201527f697374656e7420746f6b656e0000000000000000000000000000000000000000602082015250565b60006141f4602c8361380b565b91506141ff82614198565b604082019050919050565b60006020820190508181036000830152614223816141e7565b9050919050565b7f4552433732313a20617070726f76616c20746f2063757272656e74206f776e6560008201527f7200000000000000000000000000000000000000000000000000000000000000602082015250565b600061428660218361380b565b91506142918261422a565b604082019050919050565b600060208201905081810360008301526142b581614279565b9050919050565b7f4552433732313a20617070726f76652063616c6c6572206973206e6f74206f7760008201527f6e6572206e6f7220617070726f76656420666f7220616c6c0000000000000000602082015250565b600061431860388361380b565b9150614323826142bc565b604082019050919050565b600060208201905081810360008301526143478161430b565b9050919050565b7f4552433732313a207472616e736665722063616c6c6572206973206e6f74206f60008201527f776e6572206e6f7220617070726f766564000000000000000000000000000000602082015250565b60006143aa60318361380b565b91506143b58261434e565b604082019050919050565b600060208201905081810360008301526143d98161439d565b9050919050565b7f455243373231456e756d657261626c653a206f776e657220696e646578206f7560008201527f74206f6620626f756e6473000000000000000000000000000000000000000000602082015250565b600061443c602b8361380b565b9150614447826143e0565b604082019050919050565b6000602082019050818103600083015261446b8161442f565b9050919050565b7f4f776e61626c653a2063616c6c6572206973206e6f7420746865206f776e6572600082015250565b60006144a860208361380b565b91506144b382614472565b602082019050919050565b600060208201905081810360008301526144d78161449b565b9050919050565b7f57686974656c6973742069736e27742061637469766500000000000000000000600082015250565b600061451460168361380b565b915061451f826144de565b602082019050919050565b6000602082019050818103600083015261454381614507565b9050919050565b7f4e6f20746f6b656e7320726573657276656420666f7220796f7572206164647260008201527f6573730000000000000000000000000000000000000000000000000000000000602082015250565b60006145a660238361380b565b91506145b18261454a565b604082019050919050565b600060208201905081810360008301526145d581614599565b9050919050565b7f43616e2774206d696e74206d6f7265207468616e207265736572766564000000600082015250565b6000614612601d8361380b565b915061461d826145dc565b602082019050919050565b6000602082019050818103600083015261464181614605565b9050919050565b7f4e487b7100000000000000000000000000000000000000000000000000000000600052601160045260246000fd5b6000614682826138bb565b915061468d836138bb565b9250827fffffffffffffffffffffffffffffffffffffffffffffffffffffffffffffffff038211156146c2576146c1614648565b5b828201905092915050565b7f43616e2774206d696e74206d6f7265207468616e206d617820737570706c7900600082015250565b6000614703601f8361380b565b915061470e826146cd565b602082019050919050565b60006020820190508181036000830152614732816146f6565b9050919050565b6000614744826138bb565b915061474f836138bb565b9250817fffffffffffffffffffffffffffffffffffffffffffffffffffffffffffffffff048311821515161561478857614787614648565b5b828202905092915050565b7f57726f6e6720616d6f756e74206f66204554482073656e740000000000000000600082015250565b60006147c960188361380b565b91506147d482614793565b602082019050919050565b600060208201905081810360008301526147f8816147bc565b9050919050565b600061480a826138bb565b9150614815836138bb565b92508282101561482857614827614648565b5b828203905092915050565b600061483e826138bb565b91507fffffffffffffffffffffffffffffffffffffffffffffffffffffffffffffffff82141561487157614870614648565b5b600182019050919050565b7f455243373231456e756d657261626c653a20676c6f62616c20696e646578206f60008201527f7574206f6620626f756e64730000000000000000000000000000000000000000602082015250565b60006148d8602c8361380b565b91506148e38261487c565b604082019050919050565b60006020820190508181036000830152614907816148cb565b9050919050565b7f4e487b7100000000000000000000000000000000000000000000000000000000600052603260045260246000fd5b7f4552433732313a206f776e657220717565727920666f72206e6f6e657869737460008201527f656e7420746f6b656e0000000000000000000000000000000000000000000000602082015250565b600061499960298361380b565b91506149a48261493d565b604082019050919050565b600060208201905081810360008301526149c88161498c565b9050919050565b7f4552433732313a2062616c616e636520717565727920666f7220746865207a6560008201527f726f206164647265737300000000000000000000000000000000000000000000602082015250565b6000614a2b602a8361380b565b9150614a36826149cf565b604082019050919050565b60006020820190508181036000830152614a5a81614a1e565b9050919050565b7f43616e27742072657365727665206d6f7265207468616e2073657420616d6f7560008201527f6e74000000000000000000000000000000000000000000000000000000000000602082015250565b6000614abd60228361380b565b9150614ac882614a61565b604082019050919050565b60006020820190508181036000830152614aec81614ab0565b9050919050565b7f53616c652069736e277420616374697665000000000000000000000000000000600082015250565b6000614b2960118361380b565b9150614b3482614af3565b602082019050919050565b60006020820190508181036000830152614b5881614b1c565b9050919050565b7f43616e206f6e6c79206d696e74206265747765656e203120616e64203130207460008201527f6f6b656e73206174206f6e636500000000000000000000000000000000000000602082015250565b6000614bbb602d8361380b565b9150614bc682614b5f565b604082019050919050565b60006020820190508181036000830152614bea81614bae565b9050919050565b7f4552433732314d657461646174613a2055524920717565727920666f72206e6f60008201527f6e6578697374656e7420746f6b656e0000000000000000000000000000000000602082015250565b6000614c4d602f8361380b565b9150614c5882614bf1565b604082019050919050565b60006020820190508181036000830152614c7c81614c40565b9050919050565b600081905092915050565b6000614c9982613800565b614ca38185614c83565b9350614cb381856020860161381c565b80840191505092915050565b6000614ccb8285614c8e565b9150614cd78284614c8e565b91508190509392505050565b7f4f776e61626c653a206e6577206f776e657220697320746865207a65726f206160008201527f6464726573730000000000000000000000000000000000000000000000000000602082015250565b6000614d3f60268361380b565b9150614d4a82614ce3565b604082019050919050565b60006020820190508181036000830152614d6e81614d32565b9050919050565b7f43616e206f6e6c79206d696e74206265747765656e203120616e64203230207460008201527f6f6b656e73206174206f6e636500000000000000000000000000000000000000602082015250565b6000614dd1602d8361380b565b9150614ddc82614d75565b604082019050919050565b60006020820190508181036000830152614e0081614dc4565b9050919050565b7f4e487b7100000000000000000000000000000000000000000000000000000000600052601260045260246000fd5b6000614e41826138bb565b9150614e4c836138bb565b925082614e5c57614e5b614e07565b5b828204905092915050565b7f4552433732313a206f70657261746f7220717565727920666f72206e6f6e657860008201527f697374656e7420746f6b656e0000000000000000000000000000000000000000602082015250565b6000614ec3602c8361380b565b9150614ece82614e67565b604082019050919050565b60006020820190508181036000830152614ef281614eb6565b9050919050565b7f4552433732313a207472616e736665722066726f6d20696e636f72726563742060008201527f6f776e6572000000000000000000000000000000000000000000000000000000602082015250565b6000614f5560258361380b565b9150614f6082614ef9565b604082019050919050565b60006020820190508181036000830152614f8481614f48565b9050919050565b7f4552433732313a207472616e7366657220746f20746865207a65726f2061646460008201527f7265737300000000000000000000000000000000000000000000000000000000602082015250565b6000614fe760248361380b565b9150614ff282614f8b565b604082019050919050565b6000602082019050818103600083015261501681614fda565b9050919050565b7f4552433732313a20617070726f766520746f2063616c6c657200000000000000600082015250565b600061505360198361380b565b915061505e8261501d565b602082019050919050565b6000602082019050818103600083015261508281615046565b9050919050565b7f4552433732313a207472616e7366657220746f206e6f6e20455243373231526560008201527f63656976657220696d706c656d656e7465720000000000000000000000000000602082015250565b60006150e560328361380b565b91506150f082615089565b604082019050919050565b60006020820190508181036000830152615114816150d8565b9050919050565b6000615126826138bb565b9150615131836138bb565b92508261514157615140614e07565b5b828206905092915050565b600081519050919050565b600082825260208201905092915050565b60006151738261514c565b61517d8185615157565b935061518d81856020860161381c565b6151968161384f565b840191505092915050565b60006080820190506151b66000830187613950565b6151c36020830186613950565b6151d060408301856139e6565b81810360608301526151e28184615168565b905095945050505050565b6000815190506151fc81613771565b92915050565b6000602082840312156152185761521761373b565b5b6000615226848285016151ed565b91505092915050565b7f4e487b7100000000000000000000000000000000000000000000000000000000600052603160045260246000fd5b7f4552433732313a206d696e7420746f20746865207a65726f2061646472657373600082015250565b600061529460208361380b565b915061529f8261525e565b602082019050919050565b600060208201905081810360008301526152c381615287565b9050919050565b7f4552433732313a20746f6b656e20616c7265616479206d696e74656400000000600082015250565b6000615300601c8361380b565b915061530b826152ca565b602082019050919050565b6000602082019050818103600083015261532f816152f3565b905091905056fea26469706673582212201c6b8fd8f82b957fdd3d2efcfe699b9950b02ac1bcce1a2417e8e3297e3fac4c64736f6c63430008090033",
  "immutableReferences": {},
  "source": "// SPDX-License-Identifier: MIT\npragma solidity 0.8.9;\n\nimport '@openzeppelin/contracts/token/ERC721/extensions/ERC721Enumerable.sol';\nimport '@openzeppelin/contracts/access/Ownable.sol';\n\ncontract ElegantPuffin is ERC721Enumerable, Ownable {\n    using Address for address;\n\n    // Starting and stopping sale, presale and whitelist\n    bool public whitelistActive = false;\n    bool public presaleActive = false;\n    bool public saleActive = false;\n\n    // Reserved for the team, customs, giveaways, collabs and so on.\n    uint256 public reserved = 150;\n\n    // Price of each token\n    uint256 public initial_price = 0.02 ether;\n    uint256 public price;\n\n    // Maximum limit of tokens that can ever exist\n    uint256 public constant MAX_SUPPLY = 20;\n    uint256 public constant MAX_PRESALE_SUPPLY = 500;\n    uint256 public constant MAX_MINT_PER_TX = 20;\n\n    // The base link that leads to the image / video of the token\n    string public baseTokenURI = \"https://api.mireino.com/\";\n\n    // Team addresses for withdrawals\n    address public a1;\n    address public a2;\n    address public a3;\n\n    // List of addresses that have a number of reserved tokens for whitelist\n    mapping (address => uint256) public whitelistReserved;\n\n    constructor () ERC721 (\"Elegant Puffin\", \"EPF\") {\n        price = initial_price;\n    }\n\n    // Override so the openzeppelin tokenURI() method will use this method to create the full tokenURI instead\n    function _baseURI() internal view virtual override returns (string memory) {\n        return baseTokenURI;\n    }\n\n    // See which address owns which tokens\n    function tokensOfOwner(address addr) public view returns(uint256[] memory) {\n        uint256 tokenCount = balanceOf(addr);\n        uint256[] memory tokensId = new uint256[](tokenCount);\n        for(uint256 i; i < tokenCount; i++){\n            tokensId[i] = tokenOfOwnerByIndex(addr, i);\n        }\n        return tokensId;\n    }\n\n    // Exclusive whitelist minting\n    function mintWhitelist(uint256 _amount) public payable {\n        uint256 supply = totalSupply();\n        uint256 reservedAmt = whitelistReserved[msg.sender];\n        require( whitelistActive,                   \"Whitelist isn't active\" );\n        require( reservedAmt > 0,                   \"No tokens reserved for your address\" );\n        require( _amount <= reservedAmt,            \"Can't mint more than reserved\" );\n        require( supply + _amount <= MAX_SUPPLY,    \"Can't mint more than max supply\" );\n        require( msg.value == price * _amount,      \"Wrong amount of ETH sent\" );\n        whitelistReserved[msg.sender] = reservedAmt - _amount;\n        for(uint256 i; i < _amount; i++){\n            _safeMint( msg.sender, supply + i );\n        }\n    }\n\n    // Presale minting\n    function mintPresale(uint256 _amount) public payable {\n        uint256 supply = totalSupply();\n        require( presaleActive,                             \"Sale isn't active\" );\n        require( _amount > 0 && _amount <= MAX_MINT_PER_TX, \"Can only mint between 1 and 20 tokens at once\" );\n        require( supply + _amount <= MAX_PRESALE_SUPPLY,    \"Can't mint more than max supply\" );\n        require( msg.value == price * _amount,              \"Wrong amount of ETH sent\" );\n        for(uint256 i; i < _amount; i++){\n            _safeMint( msg.sender, supply + i );\n        }\n    }\n\n    // Standard mint function\n    function mintToken(uint256 _amount) public payable {\n        uint256 supply = totalSupply();\n        require( saleActive,                                \"Sale isn't active\" );\n        require( _amount > 0 && _amount <= MAX_MINT_PER_TX, \"Can only mint between 1 and 10 tokens at once\" );\n        require( supply + _amount <= MAX_SUPPLY,            \"Can't mint more than max supply\" );\n        require( msg.value == price * _amount,              \"Wrong amount of ETH sent\" );\n        for(uint256 i; i < _amount; i++){\n            _safeMint( msg.sender, supply + i );\n        }\n    }\n\n    // Admin minting function to reserve tokens for the team, collabs, customs and giveaways\n    function mintReserved(uint256 _amount) public onlyOwner {\n        // Limited to a publicly set amount\n        require( _amount <= reserved, \"Can't reserve more than set amount\" );\n        reserved -= _amount;\n        uint256 supply = totalSupply();\n        for(uint256 i; i < _amount; i++){\n            _safeMint( msg.sender, supply + i );\n        }\n    }\n\n    // Edit reserved whitelist spots\n    function editWhitelistReserved(address[] memory _a, uint256[] memory _amount) public onlyOwner {\n        for(uint256 i; i < _a.length; i++){\n            whitelistReserved[_a[i]] = _amount[i];\n        }\n    }\n\n    // Start and stop whitelist\n    function setWhitelistActive(bool val) public onlyOwner {\n        whitelistActive = val;\n    }\n\n    // Start and stop presale\n    function setPresaleActive(bool val) public onlyOwner {\n        presaleActive = val;\n    }\n\n    // Start and stop sale\n    function setSaleActive(bool val) public onlyOwner {\n        saleActive = val;\n    }\n\n    // Set new baseURI\n    function setBaseURI(string memory baseURI) public onlyOwner {\n        baseTokenURI = baseURI;\n    }\n\n    // Set a different price in case ETH changes drastically\n    function setPrice(uint256 newPrice) public onlyOwner {\n        price = newPrice;\n    }\n\n    // Set team addresses\n    function setAddresses(address[] memory _a) public onlyOwner {\n        a1 = _a[0];\n        a2 = _a[1];\n        a3 = _a[2];\n    }\n\n    // Withdraw funds from contract for the team\n    function withdrawTeam(uint256 amount) public payable onlyOwner {\n        uint256 percent = amount / 100;\n        require(payable(a1).send(percent * 40));\n        require(payable(a2).send(percent * 30));\n        require(payable(a3).send(percent * 30));\n    }\n}\n",
  "sourcePath": "/home/geradeluxer/Documents/project/NFTCollectionTemplate/contracts/ElegantPuffin.sol",
  "compiler": {
    "name": "solc",
    "version": "0.8.9+commit.e5eed63a.Emscripten.clang"
  },
  "schemaVersion": "3.4.7",
  "updatedAt": "2022-06-03T00:25:04.282Z",
  "devdoc": {
    "kind": "dev",
    "methods": {
      "approve(address,uint256)": {
        "details": "See {IERC721-approve}."
      },
      "balanceOf(address)": {
        "details": "See {IERC721-balanceOf}."
      },
      "getApproved(uint256)": {
        "details": "See {IERC721-getApproved}."
      },
      "isApprovedForAll(address,address)": {
        "details": "See {IERC721-isApprovedForAll}."
      },
      "name()": {
        "details": "See {IERC721Metadata-name}."
      },
      "owner()": {
        "details": "Returns the address of the current owner."
      },
      "ownerOf(uint256)": {
        "details": "See {IERC721-ownerOf}."
      },
      "renounceOwnership()": {
        "details": "Leaves the contract without owner. It will not be possible to call `onlyOwner` functions anymore. Can only be called by the current owner. NOTE: Renouncing ownership will leave the contract without an owner, thereby removing any functionality that is only available to the owner."
      },
      "safeTransferFrom(address,address,uint256)": {
        "details": "See {IERC721-safeTransferFrom}."
      },
      "safeTransferFrom(address,address,uint256,bytes)": {
        "details": "See {IERC721-safeTransferFrom}."
      },
      "setApprovalForAll(address,bool)": {
        "details": "See {IERC721-setApprovalForAll}."
      },
      "supportsInterface(bytes4)": {
        "details": "See {IERC165-supportsInterface}."
      },
      "symbol()": {
        "details": "See {IERC721Metadata-symbol}."
      },
      "tokenByIndex(uint256)": {
        "details": "See {IERC721Enumerable-tokenByIndex}."
      },
      "tokenOfOwnerByIndex(address,uint256)": {
        "details": "See {IERC721Enumerable-tokenOfOwnerByIndex}."
      },
      "tokenURI(uint256)": {
        "details": "See {IERC721Metadata-tokenURI}."
      },
      "totalSupply()": {
        "details": "See {IERC721Enumerable-totalSupply}."
      },
      "transferFrom(address,address,uint256)": {
        "details": "See {IERC721-transferFrom}."
      },
      "transferOwnership(address)": {
        "details": "Transfers ownership of the contract to a new account (`newOwner`). Can only be called by the current owner."
      }
    },
    "version": 1
  },
  "userdoc": {
    "kind": "user",
    "methods": {},
    "version": 1
  }
}